:100000000C9488040C94CF040C94CF040C94CF046B
:100010000C94CF040C94CF040C94CF040C94CF0414
:100020000C94CF040C94CF040C94832B0C94552C7B
:100030000C944C230C94CF040C94CF040C94CF0458
:100040000C94CF040C94CF040C94CF040C94CF04E4
:100050000C94CF040C94C0230C94CF040C94CF04C4
:100060000C94CF040C94CF040C94CF040C94CF04C4
:100070000C94CF040C94CF040C94CF040C94CF04B4
:100080000C94CF040C94CF040C94CF040C94CF04A4
:100090000C94CF040C94CF040C94CF040C94CF0494
:1000A0000C94CF040C94CF040C94CF042F10321076
:1000B0003A103F10441049104E10531058105D1064
:1000C0006210671069106C106F1072107510781044
:1000D0007A107F108011831192119E11A611B11117
:1000E000B411B411B411FC11FF11B911BC11C1113B
:1000F000CE11DB11DE11E211EF11BC18BC18EE18A5
:10010000EE183B195919B11AB11A9B19301A411A34
:10011000411AA11AB11AB11AAA1A371B371B491B67
:10012000491B401B491B491B491B371B371B451BE0
:10013000491B491B451BC22CE92CE12DE92CE12D63
:10014000352D582DE12DAF2DBE2D29001E001F008D
:100150002000210022002300240025002600270083
:100160002D002E002A004C002B0014001A0008005D
:10017000150017001C0018000C00120013002F00BF
:10018000300031004A003900040016000700090061
:100190000A000B000D000E000F00330034000000B9
:1001A00028004B00E10000001D001B0006001900A4
:1001B000050011001000360037003800E50052003D
:1001C0004E00E000E300E2000000000000002C0010
:1001D000000000000000E6000151500051004F00F7
:1001E000005C3A003B003C003D003E003F00400008
:1001F0004100420043004400450001000100350277
:10020000C25CC35CC55CC65CC75CC85CC95CCA5CDC
:1002100001000100010001000100010001000100D6
:1002200001000100010001000100010001000100C6
:1002300001000100000001000100010000000100B8
:1002400001000100010001000100010001000100A6
:100250000100010001000100010001000100000097
:10026000000000000100000000000000010001008B
:100270000100010001000100010001000100010076
:100280000100010001000100010001000100010066
:100290000100010001000100010001000100010056
:1002A0000100010001000100010001000100010046
:1002B0000100010001000100010001000100010036
:1002C0000100010001000100010000000100010027
:1002D0000100000001000100010001000100010017
:1002E0000100010001000100010001000100010006
:1002F00001000100000000000000010000000000FB
:1003000000000100010001000100010001000100E6
:1003100001000100010001000100010001000100D5
:1003200001000100010001000100010001000100C5
:1003300001000100010001000100010001000100B5
:1003400001000100010001000100010001000100A5
:100350000100010001000100010001000100010095
:100360000000010001000100000001000100010087
:100370000100010001000100010001000100010075
:100380000100010001000100010000000000000068
:100390000100000000000000010001000100010058
:1003A000010000000000000000002A2B28000000CF
:1003B0000000000000000000000000000029000014
:1003C00000002C1E3420212224342627252E362DF1
:1003D0003738271E1F202122232425263333362E8B
:1003E00037381F0405060708090A0B0C0D0E0F10FD
:1003F0001112131415161718191A1B1C1D2F313042
:10040000232D350405060708090A0B0C0D0E0F10E5
:100410001112131415161718191A1B1C1D2F313021
:10042000354C00000000000000000000000000004B
:1004300000000000000000000000000000000000BC
:1004400000000000000000000000000000000000AC
:10045000000000000000000000000000000000009C
:10046000000000000000000000000000000000008C
:10047000000000000000000000000000000000007C
:10048000000000000000000000000000000000006C
:10049000000000000000000000000000000000005C
:1004A000000000000000000000000000000000004C
:1004B000000000000000000000000000000000003C
:1004C0000000000101010101010001010101000022
:1004D000000000000000000000000000010001001A
:1004E00001010101010101010101010101010101FC
:1004F00001010101010101010101010101000000EF
:1005000001010000000000000000000000000000E9
:1005100000000000000000000000000000010101D8
:10052000010000047F3F1F643214643214783C1EC3
:100530001E140A052223252628292A2C2D2F303285
:10054000333536383A3B3D3E4042434547494A4CB5
:100550004E5051535557595A5C5E606264666869E3
:100560006B6D6F71737577797B7D7F8183858789EB
:100570008A8C8E90929496989A9C9E9FA1A3A5A7F0
:10058000A8AAACAEAFB1B3B4B6B8B9BBBCBEBFC11C
:10059000C2C3C5C6C7C9CACBCCCDCED0D1D2D2D3A7
:1005A000D4D5D6D7D7D8D9D9DADADBDBDBDCDCDCBB
:1005B000DCDCDDDDDDDDDCDCDCDCDCDBDBDBDADA7E
:1005C000D9D9D8D7D7D6D5D4D3D2D2D1D0CECDCCF5
:1005D000CBCAC9C7C6C5C3C2C1BFBEBCBBB9B8B60A
:1005E000B4B3B1AFAEACAAA8A7A5A3A19F9E9C9A95
:1005F00098969492908E8C8A89878583817F7D7B63
:1006000079777573716F6D6B6968666462605E5C43
:100610005A5957555351504E4C4A49474543424009
:100620003E3D3B3A3836353332302F2D2C2A29289F
:1006300026252322FFAA7F55400001010101010167
:100640000101010202020202020202020303030389
:100650000303030304040404040404050505050559
:100660000606060606070707070708080808090917
:1006700009090A0A0A0B0B0B0C0C0C0D0D0D0E0EC2
:100680000E0F0F0F10101111111212131314141555
:100690001516161717181819191A1A1B1B1C1D1DC9
:1006A0001E1E1F202021222223242425262627281F
:1006B00029292A2B2C2D2D2E2F303132323334354F
:1006C000363738393A3B3C3D3E3F40414243444552
:1006D000464748494A4C4D4E4F5051535455565831
:1006E000595A5B5D5E5F616264656668696B6C6DDB
:1006F0006F7072737577787A7B7D7E808283858751
:10070000888A8C8E8F91939596989A9C9EA0A2A38E
:10071000A5A7A9ABADAFB1B3B5B7BABCBEC0C2C493
:10072000C6C9CBCDCFD1D4D6D8DBDDDFE2E4E7E953
:10073000EBEEF0F3F5F8FAFDFF04033000000026BD
:1007400003430061007200790057006F0072006B74
:100750000073002000560065007300700061002ED9
:10076000004300520000001403430061007200794E
:100770000057006F0072006B007300000004030953
:100780000409025B00030100A0FA09040000010350
:100790000101000921110100012240000705810328
:1007A00008000A09040100020300000009211101E8
:1007B0000001222200070582032000010705030330
:1007C00020000109040200010300000009211101B9
:1007D000000122C0000705840320000A1201100155
:1007E00000000008524301011219010203010660D2
:1007F000FF0961A1010962150026FF009520750817
:1008000081020963150026FF00952075089102C03A
:1008100005010902A10185020901A10005091901CB
:1008200029051500250195057501810295017503BE
:1008300081010501093009311581257F950275086F
:10084000810609381581257F950175088106050CFB
:100850000A38021581257F950175088106C0C005FB
:10086000010980A10185031A81002A830016010075
:10087000260300950175108100C0050C0901A10136
:1008800085041A01002A9C02160100269C0295018B
:1008900075108100C005010906A10185050507192C
:1008A000E029E71500250195087501810205071962
:1008B0000029EF1500250195F07501810205081941
:1008C000012905950575019102950175039101C0F6
:1008D00005010906A101050719E029E71500250111
:1008E00095087501810295017508810105071900B8
:1008F00029FF150026FF00950675088100050819D7
:10090000012905950575019102950175039101C0B5
:1009100011241FBECFEFDAE0DEBFCDBF04B603FE69
:1009200027C080919F029091A002A091A102B09156
:10093000A2028730904BA740B04BD1F410929F0297
:100940001092A0021092A1021092A20214BE84B7CB
:10095000877F84BF0FB6F894A89580916000886166
:1009600080936000109260000FBEE0E0F8E309950C
:1009700011E0A0E0B1E0E2E4FDE502C005900D92D7
:10098000AC36B107D9F722E0ACE6B1E001C01D9268
:10099000AF39B207E1F70E9437280C949F2E0C94D0
:1009A000000081FF02C0209A01C020982898089575
:1009B00081E0089581E008950C94DA041F93CF93A9
:1009C000DF9300D000D01F92CDB7DEB749835A83A2
:1009D0006B832091A60189819A81211112C066231F
:1009E00049F00E948720182F682F89819A810E94E0
:1009F000302003C00E945B20182F69817A81812FEB
:100A000004C00E94872069817A810F900F900F9017
:100A10000F900F90DF91CF911F910C94DD12FC018C
:100A2000408151816281738184810C94DE041F9323
:100A3000CF93DF9390E0FC01EE55FC4F1491FC0145
:100A4000EE55FB4FD491FC01EE5DFB4FC491DD23CD
:100A500019F081EE0E94E316CC2319F086EE0E9475
:100A6000E316812F0E946918CC2319F086EE0E94AC
:100A70000118DD2331F081EEDF91CF911F910C94AD
:100A80000118DF91CF911F910895FF920F931F934B
:100A9000CF93DF93EC01F62E8881882331F18E010C
:100AA0000F5F1F4F813031F4C9818C2F0E94E316F4
:100AB0008C2F0AC0823029F489810E94E316E80154
:100AC00008C0833021F489810E940118F8CF0E9468
:100AD000170521968F2D8823F9F2EFE9FFE0319772
:100AE000F1F700C000008150F6CFDF91CF911F9148
:100AF0000F91FF90089560E00C9445058F929F92AE
:100B0000AF92BF92CF92DF92EF92FF920F931F931B
:100B10006B017C0181E090E0A0E0B0E04C015D0160
:100B200004C0880C991CAA1CBB1C4A95D2F7AC01C6
:100B3000BD0104C0440F551F661F771F2A95D2F7C9
:100B4000482959296A297B2904C0880F991FAA1F9F
:100B5000BB1F0A95D2F78A019B010C211D212E2172
:100B60003F21401751076207730739F4BC01CD01DB
:100B70006C297D298E299F290AC080959095A09582
:100B8000B095BC01CD016C217D218E219F211F914B
:100B90000F91FF90EF90DF90CF90BF90AF909F901C
:100BA0008F9008950F93382F262F60911102709126
:100BB00012028091130290911402042F432F0E947D
:100BC0007E050F910C946C1F0E94FA100E94BF21A9
:100BD000811102C00E945F220C9420090C9422090A
:100BE0000C94D10481E008950C94F205CF93C82FA2
:100BF0000E94F0058C2F0E94F405CF91089508956E
:100C00000E94251B0E94FF052FEF84E39CE02150EA
:100C100080409040E1F700C000000C94E6230F9361
:100C20001F93CF93DF93EC010E940F058C01BE014F
:100C30000E943211882309F45DC0BE01C8010E94E0
:100C4000DC04882309F456C0BE01C8010E940A14BE
:100C5000882309F44FC0BE01C8010E944B148823A9
:100C600009F448C0BE01C8010E941810882309F485
:100C700041C08A81882371F001158CE5180739F08D
:100C80000E3D8CE5180731F40E945F2233C00E94AC
:100C9000000630C006311C4531F50E940821982F0E
:100CA0008A812091100130911101882379F09A7A7C
:100CB00081E009F480E080936C01911102C069E247
:100CC00001C065E3C9010E94CC220AC080916C0179
:100CD000811102C069E201C065E3C9010E94D72207
:100CE0000E94562107C0CE01DF91CF911F910F9135
:100CF0000C94D80480E0DF91CF911F910F9108955B
:100D000080E090E008950895880F991FFC01EE5D42
:100D1000FA4F859194910895CF93DF930E94DD124D
:100D20000E944608EC018115904508F041C0C115AC
:100D300080E4D80708F028C1C83ED10510F5C03EB0
:100D4000D10508F09FC1C83AD10578F4C53AD1055C
:100D500008F0A2C0C130D10509F494C108F445C11E
:100D6000C430D10508F08EC140C1CF3BD10508F495
:100D70009EC0C03CD10508F438C1CE01805C910909
:100D8000F5C0C11590E2D90758F4C11521E0D2078A
:100D900008F078C1C03FD10508F427C1D06572C101
:100DA000C11580E3D80708F0E5C0CE019F70DEC012
:100DB000C11595E5D90708F043C0C11524E5D20750
:100DC00008F0F9C0C11582E5D80708F5C11591E50D
:100DD000D90708F0DCC0CE0174E0969587957A9526
:100DE000E1F783709C2F937021E030E002C0220F66
:100DF000331F9A95E2F73C68382BCF70C695C6959D
:100E000080E2C89FE0011124C22BD32B3BC19E017D
:100E1000237033278C2F86958695C115D34508F00E
:100E2000BBC0C1E0D0E002C0CC0FDD1F2A95E2F7C5
:100E300020E2829FC0011124C82BD92BDC6822C17B
:100E4000C11529E5D207A0F4C11588E5D80708F037
:100E5000B7C0C11596E5D90708F0C7C08C2F0E940E
:100E6000DA088F71C82FD0E0DC2FCC27D0620AC1FE
:100E7000C1152AE5D20708F4A8C0CE019056811505
:100E8000904208F0B2C08D2F8F710E94DA08DD27E2
:100E9000D0628F71D82BF6C0C53AD10509F4A8C02D
:100EA000C63AD10509F0A7C0C2E8D0E4EBC0C83A01
:100EB000D10509F4A3C0C93AD10509F4A2C0CA3AC0
:100EC000D10509F4A1C0CB3AD10509F4A0C0CC3AB0
:100ED000D10509F49FC0CB3BD10509F49EC0CC3BA2
:100EE000D10509F49DC0CD3AD10509F49CC0C03BA1
:100EF000D10509F49BC0CE3AD10509F49AC0CF3A86
:100F0000D10509F499C0C13BD10509F498C0C23B91
:100F1000D10509F497C0C33BD10509F496C0C43B81
:100F2000D10509F495C0C53BD10509F494C0C63B71
:100F3000D10509F493C0C73BD10509F492C0C83B61
:100F4000D10509F491C0C93BD10509F490C0CD3B4E
:100F5000D10509F48FC0CE3BD10509F48EC0CA3B40
:100F6000D10509F48DC0C0E0D4E48CC00E94840691
:100F7000EC0188C0CE019927D3FF03C0EC01D86CE7
:100F800081C0EC01D06C7EC0DF70D06A7BC0DC2FEA
:100F9000CC27C16FD06A76C0C1E0D0E002C0CC0FD0
:100FA000DD1F2A95E2F720E2829FC0011124C82BA1
:100FB000D92BDA6867C0DC2FCC27C46FD06A62C037
:100FC000DC2FCC27C06FD06A5DC08C2F8F700E9441
:100FD000DA0894E0D695C7959A95E1F7CF70D0E0FE
:100FE000DC2FCC27D069C82B4DC0C0E0D0E04AC070
:100FF000C1E8D0E447C0C3E8D0E444C0C2EED4E4C2
:1010000041C0C9EED4E43EC0CAEED4E43BC0C5EB57
:10101000D4E438C0C6EBD4E435C0C3EBD4E432C06A
:10102000C4EBD4E42FC0C7EBD4E42CC0CCECD4E4A4
:1010300029C0CDECD4E426C0C3E8D5E423C0CAE877
:10104000D5E420C0C2E9D5E41DC0C4E9D5E41AC086
:10105000C1E2D6E417C0C3E2D6E414C0C4E2D6E4C9
:1010600011C0C5E2D6E40EC0C6E2D6E40BC0C7E2AA
:10107000D6E408C0CFE6D4E405C0C0E7D4E402C09B
:10108000CAE2D6E4CE01DF91CF910895823891056E
:1010900069F1B0F48133910509F46DC048F48932E7
:1010A000910509F463C08A32910509F469C0089575
:1010B0008533910509F455C089339105B9F0089538
:1010C000833E910569F138F4803E9105B1F0823E8E
:1010D000910509F10895863E9105A9F1873E910594
:1010E000B9F1843E910509F064C023C020919002BB
:1010F00020FD4FC021FD4DC008958091900280FDDC
:1011000044C08091910280FF44C08091900284FD90
:1011100042C083EE4DC08091900282FF38C0F5CF6F
:101120008091900282FD33C08091910280FD31C098
:10113000ECCF8091910281FF32C08091900284FDBA
:101140002AC087EE35C08091900283FF26C0F5CF7C
:101150008091900283FD21C08091910281FD1FC08A
:10116000ECCF8091900285FD1CC01DC08091900243
:1011700085FD19C016C08091900286FD16C017C06B
:101180008091900286FD13C010C089E311C082EEE9
:101190000FC080EE0DC080E00BC086EE09C084EE6B
:1011A00007C089E205C085E303C08AE201C081E38C
:1011B00090E008959091900292FF0DC0282F287121
:1011C000283019F4877F846006C0282F24712430CA
:1011D00011F48B7F886093FF0DC0282F2871283170
:1011E00019F4877E846106C0282F2471243111F4FC
:1011F0008B7E88612091910220FF0DC0382F3871BD
:10120000383019F4877F816006C0382F3171313052
:1012100011F48E7F886021FF0DC0282F287128319E
:1012200019F4877E816106C0282F2171213111F4C4
:101230008E7E886194FD877E089508950C941D0923
:101240000C941E090C941D09E82FF0E0EE0FFF1F0F
:10125000E359FE4F8081918108950895CF93DF93E4
:10126000A2E3B1E047E351E061E070E08D91E82F47
:10127000E295EF70F0E021A18F70EB0102C0CC0F7E
:10128000DD1F8A95E2F7CE019C2F9095922391A3C2
:1012900092A1892B82A34A175B0741F7A3E2B1E031
:1012A00042E351E061E070E08D91E82FE295EF704C
:1012B000F0E021A18F70EB0102C0CC0FDD1F8A95F9
:1012C000E2F7CE019C2F9095922391A392A1892BB6
:1012D00082A34A175B0741F7E7E7F1E0ADE6B1E02B
:1012E00081E891E0119211921D921D928E179F0735
:1012F000C9F785E00E941F0ADF91CF910C94E405A5
:101300003F924F925F926F927F928F929F92AF9295
:10131000BF92CF92DF92EF92FF920F931F93CF93E2
:10132000DF9362E371E0A7E7B1E021E8622E21E0FC
:10133000722E412C01E010E05D018D909C90119780
:1013400011961C921E92EB018991BE01E82FE29545
:10135000EF70F0E021A18F70A80102C0440F551F6B
:101360008A95E2F7CA01242B21A322A1342E3094BE
:10137000232122A350EA5A95F1F793E2E92E91E056
:10138000F92E40E050E0E70159907E01252D22958D
:101390002F7030E0E90128A1CD90DC90119730E06A
:1013A000D52DDF7002C035952795DA95E2F720FD3F
:1013B00008C09801042E02C0220F331F0A94E2F7DE
:1013C00002C020E030E0C22AD32A1196DC92CE92ED
:1013D0004F5F5F4F4F305105B1F691A1D32DD92307
:1013E000D1A392A1892B82A3129681E0F5012081DD
:1013F00031812815390509F480E0482A6A167B06F0
:1014000009F09ACF242D45E06DE671E087E791E081
:101410000E94200A0E94EE05842DDF91CF911F913A
:101420000F91FF90EF90DF90CF90BF90AF909F9083
:101430008F907F906F905F904F903F9008950895A8
:10144000FF920F931F93CF93DF93F82E092F162F40
:10145000D72FC42F222349F081E0809383010E947B
:101460007E23909382018093810180918301882360
:10147000D9F080918101909182010E949623069774
:1014800098F0EF2DF02FA12FBD2F80E090E04C2F92
:1014900050E08417950734F4219131912D933D93B9
:1014A0000196F7CF10928301DF91CF911F910F9199
:1014B000FF900895EF92FF920F931F93CF93DF93C6
:1014C000F62E472FE82FF0E0711106C0E75CF94FC8
:1014D0006491762F862F72C0272F30E0E75CF94F9A
:1014E000E4910E2F10E056E0659FC0011124CFEF6C
:1014F000D0E0BE010E94152E5BEA5603C001579F43
:10150000900D11248F0D911D8F0D911D982F990F06
:10151000890F7E01E21AF30AE09ED001E19EB00D30
:10152000F09EB00D1124489FA0011124452F55278E
:101530007E01E41AF50AE09EA001E19E500DF09EA6
:10154000500D11247E01E81AF108E29EC001E39ECD
:10155000900DF29E900D1124892F9927C81BD90B4D
:10156000C09FC001C19F900DD09F900D112462308B
:10157000710591F048F461157105E1F06130710574
:10158000A9F48B2F752F19C06430710561F038F004
:101590006630710579F00AC0892F7B2F0EC08E2F1F
:1015A0007B2FE52F0AC08E2F792F02C0852F7E2F2B
:1015B000EB2F03C08B2F7E2FE92F6E2FDF91CF9162
:1015C0001F910F91FF90EF9008950895CF93DF93AF
:1015D000762FE901682F842F0E945A0A7983688345
:1015E0008A83DF91CF91089580916D02282F2695EF
:1015F00030E02115310519F48170826005C0253273
:10160000310524F08170886480936D02089588E02C
:1016100090E00C945F2ECF92DF92EF92FF926B01DD
:101620007C010E94F40AB701A60188E090E0FF90D7
:10163000EF90DF90CF900C947D2EEDE6F2E083E00A
:10164000808311828FEF8283838314826081718112
:10165000828193810C940B0B80916D0280FF02C0FC
:101660008695089580E0089580917102833018F482
:101670008F5F8093710260916D0270916E02809114
:101680006F02909170020C940B0B80917102882371
:1016900019F081508093710260916D0270916E0219
:1016A00080916F02909170020C940B0B6091040179
:1016B00070E080916D0280FF0AC08091880123E074
:1016C000829FC00111248E589D4F0C94BB108091B5
:1016D000870190910301891780F7E82FF0E09F01BF
:1016E000220F331FE20FF31FEE58FD4F11821082BD
:1016F00012828F5FF0CF90916D0290FF16C0909193
:10170000870120910301921770F4E92FF0E0DF01C7
:10171000AA0FBB1FEA0FFB1FEE58FD4F81836083AA
:1017200042839F5FF0CF0C94560B0895CF93DF93C5
:1017300000D01F92CDB7DEB790916D0290FF0AC026
:101740009E012F5F3F4F0E94E60A4B8169818A818B
:101750000E947B0B0F900F900F90DF91CF91089517
:10176000CF93DF93EC01EC81F0E0EC5CFA4F449115
:10177000EDE6F2E0628181810E94960B8C818F5FA1
:101780008C83DF91CF910895CF93DF93EC01EDE649
:10179000F2E0438162818C810E94960B8C818F5F85
:1017A0008C83DF91CF9108950F931F93CF93DF9395
:1017B00000D01F92CDB7DEB78C01809184018111DA
:1017C0000AC09E012F5F3F4F4FEF6FEF0E94E60A66
:1017D0008A8180938401F8018481813051F028F05E
:1017E000823061F4409184010AC08091840140E01C
:1017F00007C06091840140E080E003C040E080E0E9
:1018000060E00E947B0BF801848190E0019663E028
:1018100070E00E94292E84830F900F900F90DF912B
:10182000CF911F910F910895AF92BF92CF92DF9207
:10183000EF92FF920F931F93CF93DF9300D01F92ED
:10184000CDB7DEB7182FF62E042FE22E90916D0241
:1018500090FF6DC0E92FE695AE2FB0E0A95CBE4FBA
:101860008C91809390019E7F923061F49E012F5F56
:101870003F4F812F0E94E60A4B8169818A810E9435
:101880007B0B43C0823019F4009170023EC0863059
:1018900019F410916E0239C08930D9F38931A9F554
:1018A000E9518E2F8170D82EE695F0E0EC5CF94F6F
:1018B000A590B490C12CBB2460910201C61618F506
:1018C0002C2D30E0A29EC001A39E900DB29E900DE3
:1018D000112470E00E94152E812FD11002C0860FB6
:1018E00001C0861B90918701290F311DA901440F6A
:1018F000551F240F351F2E583D4F402F6F2D0E942E
:10190000E60AC394D9CF0E94560B10936E02F09250
:101910006F0200937002EE2051F060916D027091A1
:101920006E0280916F02909170020E940B0B0F90DB
:101930000F900F90DF91CF911F910F91FF90EF903B
:10194000DF90CF90BF90AF900895EDE6F2E09181E7
:10195000282F4381628188E0890F0C94140C81E068
:101960000C94A50CEDE6F2E09181282F4381628171
:1019700088EF890F0C94140C81E00C94B20CEDE606
:10198000F2E0628128E0620F08F46FEF282F4381B4
:1019900081810C94140C81E00C94BF0CEDE6F2E014
:1019A000628128E0621B08F460E0282F4381818176
:1019B0000C94140C81E00C94CE0CEDE6F2E0438123
:1019C00028E0420F08F44FEF282F628181810C94A8
:1019D000140C81E00C94DD0CEDE6F2E0438128E08C
:1019E000421B08F440E0282F628181810C94140C82
:1019F00081E00C94EC0C20E00C94140CFF920F93FB
:101A00001F93CF93DF93EC01F12C0FEF10E0609167
:101A10000201F616F0F4809187012F2D30E0280F97
:101A2000311DC901880F991F280F391F2E583D4FAE
:101A300070E0C8010E94292E962F8C81409170027F
:101A400060916F02F99E800D11240E94E60AF394C2
:101A5000DECF0E94560B9A818C8190FF02C08F5F6F
:101A600001C081508C83DF91CF911F910F91FF9026
:101A70000895BF92CF92DF92EF92FF920F931F9340
:101A8000CF93DF93FC01828180FF02C00FEF01C082
:101A900001E010E080910201181708F040C0809129
:101AA0008701C12ED12CE601C80FD11DCE01880FB0
:101AB000991FC80FD91FCE58DD4F198218821A827C
:101AC00034E0E32EF12CB12C809186018B0D89300E
:101AD00014F0877005C087FF03C090910201890F41
:101AE000082E000C990BC816D90691F4809170024B
:101AF0008E9DA0018F9D500D1124559547955595AC
:101B000047959E0160916F0280916E020E94E60AE5
:101B1000B00EF1E0EF1AF108B9F61F5FBBCF0E94DB
:101B2000560B80918601013031F4811102C0809101
:101B30000201815007C090E001966091020170E0BF
:101B40000E94292E80938601DF91CF911F910F91E2
:101B5000FF90EF90DF90CF90BF900895CF9380914A
:101B6000870190910301891770F4E82FF0E09F013D
:101B7000220F331FE20FF31FEE58FD4F1182108228
:101B800012828F5FF0CFC0E060910201C617C0F5EE
:101B9000EC2FF0E070E0CF010E94292E2091870108
:101BA000820F20918501022E000C330B90E0E2178A
:101BB000F307CCF020910101022E000C330B2E17FD
:101BC0003F078CF09C01220F331F820F931F9C0153
:101BD0002E583D4F4091700260916F0280916E02CD
:101BE0000E94E60A0BC0FC01EE0FFF1F8E0F9F1F25
:101BF000FC01EE58FD4F118210821282CF5FC4CFDC
:101C00000E94560B2091000180918501820F8093E4
:101C1000850190910101920F9093010119165CF4D6
:101C2000082E000C990B4091020150E041505109DF
:101C3000841795071CF0219520930001CF910895FA
:101C40000F931F93CF93DF938C01FC0184819581C7
:101C500001968170992795838483C0E0D5E58091B2
:101C60000201C81700F5809187012C2F30E0280F62
:101C7000311DC901880F991F280F391F2E583D4F5C
:101C80004C2F4695F80184819581840F911D8170B8
:101C90004091700260916F028D9F802D11240E94EF
:101CA000E60ACF5FDCCFDF91CF911F910F910C94AB
:101CB000560B0F931F93CF93DF93EC0100E010E0DE
:101CC00080910201282F30E00217130724F590912C
:101CD00087019801290F311DA901440F551F240FB9
:101CE000351F2E583D4F869590E04C8108171907F7
:101CF0001CF4442331F002C0411103C04091700232
:101D000001C040E060916F0280916E020E94E60A7D
:101D10000F5F1F4FD5CF0E94560B8C8190E001962C
:101D2000817099278C83DF91CF911F910F91089536
:101D3000EDE6F2E080818E7F808360817181828117
:101D400093810E940B0B109291012FEF80E792E09C
:101D5000215080409040E1F700C000000C94560BE9
:101D600060916D02669570E04BE050E085E091E097
:101D70000E944A2E892B19F481E0809391010E94E0
:101D80007E2390938A0180938901089590916D023A
:101D900090FF35C09170811102C0926006C08532FB
:101DA00010F0986402C0880F982B90936D02662300
:101DB00051F060916D0270916E0280916F0290916E
:101DC00070020E940B0B60916D02669570E04BE013
:101DD00050E085E091E00E944A2E892B19F0109284
:101DE000910102C00E94B00E81E080938C0140916D
:101DF000700260916F0280916E020C94FB0C08954A
:101E0000682F90916D02969581E0890F853208F0D8
:101E100081E00C94C60E81E00C94000F682F909125
:101E20006D0296958FEF890F09F484E20C94C60E2B
:101E300081E00C940E0F61E00C94C60EEDE6F2E02A
:101E400080818160808386950C941B0F80916D0248
:101E500080FD0C94980E0C941E0F60E00C94C60E3E
:101E600080918F0181112EC00E94BF21811104C079
:101E70000E945F220E941D0B0E94070B60936D025F
:101E800070936E0280936F02909370026E7F61F484
:101E90000E941D0B0E94070B60936D0270936E02EF
:101EA00080936F02909370020E94F40A1092910145
:101EB00080916D0280FF03C086950E942D0F81E006
:101EC00080938F0108950F931F93CF93DF93809199
:101ED0009101882309F48CC080919001E0916D02FA
:101EE000E695E81BE0938B01823049F4F0E0E05D79
:101EF000FA4FE491CE2FD0E000EB1BE049C08630D2
:101F000049F4F0E0E35DFA4FE491CE2FD0E004EC29
:101F10001BE03EC0893051F4E695F0E0E65DFA4FF3
:101F2000E491CE2FD0E00EEF1CE032C08F3051F4A0
:101F3000E695F0E0E95DFA4FE491CE2FD0E009E3B9
:101F40001DE026C0853149F4F0E0EC5DFA4FE491E4
:101F5000CE2FD0E00EEA1DE01BC0883181F0833225
:101F600039F4E2E2F5E0C591D49104ED1BE010C034
:101F7000843251F4C4EFD1E009E51EE009C0C8EE97
:101F8000D3E000E21EE004C0C0EDD7E005EE1AE0A9
:101F900080918C01882389F010928C010E947E230D
:101FA0009E0120953095820F931F90938A01809314
:101FB000890110928E0110928D018091890190917A
:101FC0008A010E9496238C179D0790F0E091890169
:101FD000F0918A01CE0FDF1FD0938A01C09389014F
:101FE00089E891E0F801DF91CF911F910F91099459
:101FF000DF91CF911F910F910895882311F0FA017D
:1020000001C0FB010994CF93DF93C82FD62F0E9404
:102010002C0B8C1740F00E942C0B8D1720F4DF91B5
:10202000CF910C940B0F8C2FDF91CF910C941B0F41
:102030000F931F93CF93FB01C281CC2309F463C09C
:102040008C010E9408218272F801E25CFC45E431B7
:10205000F10508F059C0EA5AFF4F0C943D2E0E943A
:10206000260F06C048E15FE06BE07FE00E94FD0FB5
:10207000C0E04AC04BE05FE068E17FE0F7CF4CEBA7
:102080005CE06FEA7CE0F2CF4FEA5CE06CEB7CE076
:10209000EDCF4AED5CE06BEC7CE0E8CF4BEC5CE034
:1020A0006AED7CE0E3CF48EF5CE069EE7CE0DECFF8
:1020B00049EE5CE068EF7CE0D9CF45E45BE064E3A7
:1020C0007BE0D4CF44E35BE065E47BE0CFCF81E00D
:1020D00017C065E082E010C068E086E00DC06EE0E9
:1020E00089E00AC064E18FE007C067E185E104C0D0
:1020F00088E106C062E289E10E940310B9CF83E261
:102100000E941B0FB5CFC1E08C2FCF911F910F9173
:1021100008952EB1342F309523233EB1432B3FB782
:10212000F894FC01680F791FE617F70789F0819191
:1021300098E04EB9000000C087FF2EB9880F00005C
:1021400000C000C000C02EB900C09A9591F7ECCF36
:102150003FBF08952DB1242B2DB99B01220F331FB2
:10216000620F731F0E94891087EC90E00197F1F7CE
:1021700000C00000089544E00C94AA1082E290E0B0
:102180000E94572E803281F483E290E00E94572E05
:10219000813051F484E290E00E94572E91E0873123
:1021A00009F090E0892F01C080E081700895CF93FD
:1021B000C82F811102C06FEF01C060E282E290E09F
:1021C0000E946B2EC11102C06FEF01C061E083E27B
:1021D00090E00E946B2EC11102C06FEF01C067E159
:1021E00084E290E0CF910C946B2E80E00E94D71097
:1021F0000C94B9210E9480092FEF86E791E02150CD
:1022000080409040E1F700C000000E94800980E01B
:102210000E94240980FF04C00E94F5100C94E6235C
:102220000895089585E290E00E94572E682F70E08F
:1022300080E090E0089585E290E00C946B2E0E947F
:1022400011110E94BE1081110CC060E070E0CB0142
:102250000E941B110E9458120E94371381E00C94B7
:10226000D7100895CF93FB01C281CC23E9F09C01E4
:1022700022513F452031310520F482510E944713FD
:102280000CC08031FFE59F0751F481E00E94921F4E
:1022900043E062E081E00E94D205C0E018C08131D5
:1022A0009F45A9F482E0F2CF8031EFE59E0711F45B
:1022B00081E004C081319F4549F482E00E94B31F50
:1022C00043E062E081E00E94D20501C0C1E08C2FB2
:1022D000CF9108952FEFFC01208308951F93CF9392
:1022E000DF93EC01162FE8818E2F90E0FC013197EF
:1022F000E331F10508F092C0E659FF4F0C943D2EF2
:10230000198288E03CC08981813029F0823061F5F2
:102310000E94121102C00E948A239A838B837C83BD
:102320006D837EC089818230F9F46A817B818C81E2
:102330009D810E94432E0E941B1172C04B816A81B5
:1023400089810E942A129C838D836AC02C813D81E1
:102350003227232732274B816A8189810E944312C9
:102360005FC00E9458125CC0612FCE010E946A11AA
:1023700057C00E94EA1224C00E94EC1299838A83FB
:102380004FC06B8170E089819A81AE014C5F5F4FD5
:102390009827892798270E94EF1242C06B8170E02E
:1023A00089819A81AE014C5F5F4F982789279827D2
:1023B0000E94141335C00E94371332C00E941712B6
:1023C00089832EC06B8170E089819A81AE014C5F58
:1023D0005F4F9827892798270E94971221C06B8109
:1023E00070E089819A81AE014C5F5F4F9827892701
:1023F00098270E94BB1214C00E94F51011C0CE0194
:102400000E9427272FEF81EE94E0215080409040DA
:10241000E1F700C000000E94E62302C08FEF88832E
:10242000612FCE01DF91CF911F910C94272784E07B
:10243000089550E0440F551F2EE1629F400D511D3D
:1024400011249A0166E9869F200D311D1124C901CE
:10245000869608950F931F93CF93DF930E941912CE
:102460008C010E94572EC82FD0E0DC2FCC27C8014A
:1024700001960E94572E9E01282BC901DF91CF9112
:102480001F910F9108950F931F93CF93DF93122FF6
:10249000032F0E941912EC01602F0E946B2E612FF6
:1024A000CE010196DF91CF911F910F910C946B2E6D
:1024B000AF92BF92CF92DF92EF92FF920F931F9352
:1024C000CF93DF93A12CE12CF12CB12C00E010E094
:1024D000C0E0D0E06701C00ED11EFE01EE0FFF1F6D
:1024E000EC0DFD1DE65BFE4F259134914C2F6B2DBD
:1024F0008A2D0E9443122196CF30D10571F7025EDA
:102500001F4FB39485E0B812E3CF86E9E80EF11CC3
:10251000A39484E0A812D9CFDF91CF911F910F919E
:10252000FF90EF90DF90CF90BF90AF900895EF9223
:10253000FF920F931F93CF93DF93EA017A01E60E88
:10254000F71E8C01C8018696CE15DF0569F00835A7
:1025500022E0120720F40E94572E888301C01882BF
:1025600021960F5F1F4FEECFDF91CF911F910F91FB
:10257000FF90EF900895EF92FF920F931F93CF93E8
:10258000DF93EA017A01E60EF71E8C01C8018696F8
:10259000CE15DF0559F0083522E0120718F46881DE
:1025A0000E946B2E21960F5F1F4FF0CFDF91CF91CE
:1025B0001F910F91FF90EF900895462F843038F4CB
:1025C000753028F46F3018F4672F0C942A1280E0CD
:1025D00090E0089580E1089582E891E00895EF92F7
:1025E000FF920F931F93CF93DF93EA017A01E60ED8
:1025F000F71E8C01C80182589D4FCE15DF0569F08A
:10260000023821E0120720F40E94572E888301C06F
:10261000188221960F5F1F4FEDCFDF91CF911F9151
:102620000F91FF90EF900895EF92FF920F931F93F9
:10263000CF93DF93EA017A01E60EF71E8C01C80101
:1026400082589D4FCE15DF0559F0023821E0120760
:1026500018F468810E946B2E21960F5F1F4FEFCFF9
:10266000DF91CF911F910F91FF90EF900895CF933D
:10267000DF93CEE7D2E060E0CE010E946B2E219680
:10268000C11584E0D807B9F7DF91CF910895EF9293
:10269000FF920F931F93CF93DF9300D01F92CDB77C
:1026A000DEB7F82E8FE08F15B8F18FEF93E00E9420
:1026B000572E811131C00EE712E0FF2069F001159D
:1026C00084E0180749F1C8010E94572E811101C00A
:1026D000FA940F5F1F4FF1CF19821A821B82780183
:1026E0008FEFE81AF80AC8010E94572E89831A82D0
:1026F000882391F08150833048F40E5F1F4FC7014B
:102700000E94572E8A83882339F07801CE010196E2
:102710000E947B058701E3CF0F900F900F90DF9110
:10272000CF911F910F91FF90EF9008950F931F93FA
:10273000CF93DF93C62FD42F122FFC0182818823E1
:10274000C9F0609394010E947E239093930180933B
:10275000920180E28C0F883008F057C0C77081E08A
:1027600001C0880FCA95EAF7DF91CF911F910F91B1
:102770000C947C1880919401681330C08091920170
:10278000909193010E949623883C910538F500E2D0
:102790000D0FCD17B9F080E28C0F883040F4C77070
:1027A00081E001C0880FCA95EAF70E9483180830BB
:1027B00028F581E09D2F977001C0880F9A95EAF760
:1027C0000E947C18812F0E9469180830F0F4D7709D
:1027D00081E001C0880FDA95EAF70AC080E28C0F29
:1027E000883098F4C77081E001C0880FCA95EAF775
:1027F000DF91CF911F910F910C948318812FDF915E
:10280000CF911F910F910C946918DF91CF911F9177
:102810000F9108959C01CB01233F4CE53407F9F05B
:1028200078F4283DFCE53F07B9F0293D4CE5340735
:1028300011F1273D3C4531F526E241EE61EE1EC027
:10284000253FFCE53F0799F070F0263F3C45D1F469
:1028500027E245EE66EE12C027E245EE0EC026E204
:1028600041EE60EE0BC027E245EE64EE07C026E2C3
:1028700041EE62EE03C028E241E065EE0E9496134D
:1028800080E00895FC018281882319F01092940160
:10289000089581E00895CF93DF93EC01FB018281DD
:1028A000882309F41FC1C230FCE5DF0708F41BC10F
:1028B000C6319CE5D90738F09E012A5F3C45293096
:1028C000310508F010C10E94D221909391028093AB
:1028D0009002C031ECE5DE0709F4C3C008F041C046
:1028E000C8308CE5D80709F49AC0F0F4C430ECE5A0
:1028F000DE0709F487C068F4C2308CE5D80709F414
:1029000077C0C330DC4509F0E3C08091900282605B
:1029100076C0C630ECE5DE0709F46EC008F07BC077
:102920008091900288606BC0CC308CE5D80709F4A8
:1029300085C068F4CA30ECE5DE0709F474C008F01D
:1029400079C00E94251B80919002806858C0CE30CB
:102950008CE5D80709F476C008F07FC0809190021A
:102960008BC0CB3FECE5DE0709F44FC018F5C3314F
:102970008CE5D80709F47DC078F4C131ECE5DE07B9
:1029800009F473C0C231DC4509F0A2C00E94251BC6
:10299000809190028F7733C0C5318CE5D80709F458
:1029A00072C008F486C0CA3FDC4509F091C080912E
:1029B00091023EC0CF3FFCE5DF0709F45FC058F449
:1029C000CD3F9CE5D90709F444C008F43FC080918D
:1029D000910282602DC0C130FDE5DF0709F475C0AA
:1029E00008F45DC0C230DD4509F072C080E06EC001
:1029F00080919002816003C08091900280618093F9
:102A0000900266C08091900211C080919102826014
:102A1000809391025DC0809190028062F0CF80919E
:102A200090028064ECCF8091900288608460E7CF50
:102A30008160EECF809190028E7FE1CF80919002F5
:102A40008D7FDDCF80919002877FD9CF80919102D9
:102A500018C0809191028D7FDBCF809190028F7E94
:102A6000CECF809190028F7DCACF809190028F7BD4
:102A7000C6CF80919002877F8B7FC1CF80919102DA
:102A80008D7F8E7FC5CF8091900282FB222720F917
:102A900091E0922790FB82F990FB83F9B0CF80916F
:102AA0009102982F909591708E7F892B90FB81F9E0
:102AB000AFCF0E94251B8091900287FB222720F92F
:102AC00091E0922790FB87F99ACF81E00E946122E2
:102AD00080919002909191020E94E3210E94251B17
:102AE00080E001C081E0DF91CF91089590939A0139
:102AF000809399010895E0919901F0919A0130979E
:102B000021F00190F081E02D099480E00895E0919A
:102B10009901F0919A01309799F020912201222396
:102B200059F02091900227FF07C0DC012C911196EB
:102B30002C93119725E02C930280F381E02D0994CA
:102B40000895E0919901F0919A01309739F022E0CF
:102B5000DC012C930480F581E02D099408952091E7
:102B60009701309198012817390771F090939801D7
:102B700080939701E0919901F0919A01309721F0AB
:102B80000680F781E02D09940895209195013091F8
:102B900096012817390771F090939601809395015B
:102BA000E0919901F0919A01309721F00084F1852C
:102BB000E02D0994089585B7806885BF85B7806842
:102BC00085BF089508950C94E2150C94E3150C94B8
:102BD000E2150C94E2150E94DB150E94E7150C9497
:102BE000E51581E008950E9475230E942E090E9438
:102BF0001F110E940A240E94300F0C94E9157F9245
:102C00008F929F92AF92BF92CF92DF92EF92FF92FC
:102C10000F931F93CF93DF93CDB7DEB72A970FB6ED
:102C2000F894DEBF0FBECDBF0E9480090E94F1154F
:102C3000811111C08FEF89838A831B820E947E23BA
:102C40008160782F9D838C8349815A816B818D812E
:102C50000E94AF164FC04CE9A42E41E0B42E00E014
:102C600010E0702E802F0E9424096C01F5018190E4
:102C700091905F01882699268114910431F40F5FA9
:102C80001F4F0530110569F7D5CF80913E0281FDB8
:102C90000E942D0980E0EE24E394F12C94012E2172
:102CA0003F21232B09F18E837F82CE20DF2081E01C
:102CB000CD2809F480E088870E947E238160782FE8
:102CC0009A8789874E815F8168858A850E94AF16C1
:102CD000000F111FF801E456FE4F80819181E82614
:102CE000F926F182E08206C08F5FEE0CFF1C8F3068
:102CF000A9F6C5CF0E949C250E947B1590919B014F
:102D00008917C9F00E947B1580939B012A960FB604
:102D1000F894DEBF0FBECDBFDF91CF911F910F9111
:102D2000FF90EF90DF90CF90BF90AF909F908F90EB
:102D30007F900C94F6052A960FB6F894DEBF0FBE6E
:102D4000CDBFDF91CF911F910F91FF90EF90DF905A
:102D5000CF90BF90AF909F908F907F900895CF932A
:102D6000DF93CDB7DEB72B970FB6F894DEBF0FBE5B
:102D7000CDBF4F83588769877A878B87DE0111968D
:102D800086E0FD0111928A95E9F785E0FE0137960C
:102D900001900D928A95E1F749815A816B817C817E
:102DA0008D819E810E94F51D2B960FB6F894DEBF93
:102DB0000FBECDBFDF91CF910895FC01808191813D
:102DC0000E94C9200895882309F41AC18238C1F4E9
:102DD0000E947B1581FD14C169E3809110019091DF
:102DE00011010E94CC220E9456212FEF81EE94E027
:102DF000215080409040E1F700C0000069E319C015
:102E00008338F9F40E947B1580FDFAC063E5809158
:102E10001001909111010E94CC220E9456212FEFA7
:102E200081EE94E0215080409040E1F700C0000026
:102E300063E580911001909111010E94D7220C94BA
:102E400056218438C1F40E947B1582FDD9C067E405
:102E500080911001909111010E94CC220E94562174
:102E60002FEF81EE94E0215080409040E1F700C0C8
:102E7000000067E4DECF9CEF980F913A40F4682F92
:102E800080911001909111010E94CC22D8CF90E244
:102E9000980F983050F4877091E001C0990F8A958F
:102EA000EAF7892F0E940B21CACF9BE5980F933038
:102EB00070F4853A29F0863A31F083E890E005C055
:102EC00081E890E002C082E890E00C94AF1598E5AC
:102ED000980F973108F08EC0883A09F445C0893AB6
:102EE00009F445C08A3A09F445C08B3A09F445C053
:102EF0008C3A09F445C08B3B09F445C08C3B09F47E
:102F000045C08D3A09F445C0803B09F445C08E3A6E
:102F100009F445C08F3A09F445C0813B09F445C026
:102F2000823B09F445C0833B09F445C0843B09F466
:102F300045C0853B09F445C0863B09F445C0873B45
:102F400009F445C0883B09F445C0893B09F445C0F4
:102F50008D3B09F445C08E3B09F445C08A3B09F41A
:102F600045C080E090E044C082EE90E041C089EE30
:102F700090E03EC08AEE90E03BC085EB90E038C028
:102F800086EB90E035C083EB90E032C084EB90E0BC
:102F90002FC087EB90E02CC08CEC90E029C08DEC2A
:102FA00090E026C083E891E023C08AE891E020C049
:102FB00082E991E01DC084E991E01AC081E292E0CB
:102FC00017C083E292E014C084E292E011C085E26F
:102FD00092E00EC086E292E00BC087E292E008C069
:102FE0008FE690E005C080E790E002C08AE292E0C0
:102FF0000C94C515803F20F00E94A4240C949125C8
:103000000895882309F464C0823879F40E947B15FE
:1030100081FF5EC069E380911001909111010E94CF
:10302000CC220E94562169E310C08338B1F40E947B
:103030007B1580FF4DC063E58091100190911101D7
:103040000E94CC220E94562163E58091100190914C
:1030500011010E94D7220C945621843879F40E94E1
:103060007B1582FF35C067E48091100190911101BA
:103070000E94CC220E94562167E4E7CF9CEF980F74
:10308000913A10F4682FE1CF90E2980F983050F405
:10309000877091E001C0990F8A95EAF7892F0E9405
:1030A0001121D9CF9BE5980F933020F480E090E078
:1030B0000C94AF1598E5980F973120F480E090E0DC
:1030C0000C94C515803F20F00E940C250C9491258E
:1030D0000895CF93C82F0E94E316C93349F42FEF08
:1030E00087EE93E0215080409040E1F700C000005F
:1030F0008C2FCF910C940118882321F00E940B2172
:103100000C9456210895882321F00E9411210C94DB
:1031100056210895CF92DF92EF92FF920F931F9363
:10312000CF93DF937C01062FC72FFC0115811295E9
:103130001F70D281D1110E9428210E940121882371
:1031400079F0DD2369F080E2800F883048F082E07A
:103150000E94A0210E94012191E0D82ED92601C011
:10316000D12CCC2EC2948FE0C8228C2D90E0FC0193
:10317000E358FF4F0C943D2E8C2F807FCF70882317
:1031800011F0C295C07FDD2399F0CC2309F4C4C1AE
:1031900080E2800F883010F0011104C08C2F0E9453
:1031A0000B2103C08C2F0E941B210E945621B4C109
:1031B000802F0E940118CC2309F4D3C180E2800F34
:1031C000883010F0011104C08C2F0E94112103C01F
:1031D0008C2F0E9421210E945621C3C18C2F807FF9
:1031E000CF70803211F0C295C07F002319F00130FA
:1031F000C9F022C0DD2371F0112341F0113031F408
:103200000E943B218C2B0E944321ABC10E943B2199
:103210008C2B1DC0112319F0113009F4A2C10E949A
:103220004C2125C0DD2321F0163008F09AC10EC0D4
:10323000153008F096C11BC0DD2361F0112331F079
:10324000F701858180FF68C18F7085838C2F0E9474
:103250007C1887C1112359F0093309F06EC1FFEFC3
:1032600027EE83E0F15020408040E1F764C18C2FCD
:103270000E94831876C18C2F86958695837019F0ED
:10328000813061F06EC1DD2321F0802F9C2F93707F
:1032900002C080E090E00E94AF156BC1DD2321F0F9
:1032A000802F9C2F937002C080E090E00E94C51593
:1032B00060C1DD23F9F0053F51F0063F71F0043F96
:1032C000A9F480918A0290918B0281600BC0809159
:1032D0008A0290918B02826005C080918A0290914F
:1032E0008B02846090938B0280938A02802F0E94CD
:1032F000A4241EC0053F51F0063F71F0043FA9F41D
:1033000080918A0290918B028E7F0BC080918A02FD
:1033100090918B028D7F05C080918A0290918B02E3
:103320008B7F90938B0280938A02802F0E940C25C2
:103330000E9491251EC18C2F837009F045C0D111C8
:1033400014C1402F429546954770440F440F602F9B
:103350006F70862F90E0A0E0B0E0042E04C0880FCC
:10336000991FAA1FBB1F0A94D2F704FF10C00FE0D9
:1033700010E020E030E004C0000F111F221F331FB7
:103380004A95D2F7009510952095309503C000E03E
:1033900010E09801C695C695C370BC01CD01602BA5
:1033A000712B822B932BC23049F058F4C13019F0A5
:1033B0000E94461FDAC00E94341FD7C00E94581FC7
:1033C000D4C00E94321FD1C0DD2319F08C2F817030
:1033D00001C08695882309F4C8C0402F42954695C0
:1033E0004770440F440F602F6F70862F90E0A0E06D
:1033F000B0E0042E04C0880F991FAA1FBB1F0A94B7
:10340000D2F704FF10C00FE010E020E030E004C06D
:10341000000F111F221F331F4A95D2F700951095F8
:103420002095309503C000E010E09801C695C69540
:10343000C370BC01CD01602B712B822B932BC2304A
:1034400049F058F4C13019F00E940B208EC00E9440
:10345000F91F8BC00E941D2088C00E946C1F85C070
:10346000CF70DD2339F08C2F0E94921F802F0E9495
:103470007C187BC0802F0E9483188C2F0E94B31F62
:1034800074C0023F01F128F4003F41F0013FA1F078
:103490003FC0033FF9F0043F39F13AC0DD2341F06A
:1034A000153008F05EC08C2F8F710E94D81F59C054
:1034B000163008F056C0F7CFDD2339F08C2F8F710E
:1034C0000E94921F4EC0DD23C9F38C2F8F710E9482
:1034D000B31F47C0DD2329F08C2F8F710E947D1F01
:1034E00040C00E94781F3DC0DD2349F0CF718C2F72
:1034F0000E94921F63E08C2F0E948B2132C081E0DA
:103500000E94A021123068F182E00E94A02129C00F
:10351000DD2331F0112391F2802F0E94E31621C0A8
:10352000112399F2093349F49FEFE7EEF3E091504C
:10353000E040F040E1F700C00000802F0E94011839
:1035400010C04C2F4F70602FC7010E9480060E9450
:10355000A31E0FC04C2F4F70602FC7010E9483061F
:1035600008C088EF8C0D843020F40E947B150E94E7
:10357000F605DD20C9F00E94FD2080FD15C0F70191
:1035800012820E94F7200E94921FC7010E94DD1A3A
:103590000E94F720DF91CF911F910F91FF90EF9044
:1035A000DF90CF900C94B31FDF91CF911F910F91BB
:1035B000FF90EF90DF90CF9008950F931F93CF93DC
:1035C000DF93EC01988189812B813C81232B31F0A1
:1035D0008F3F31F481E09F3F19F403C081E001C0C7
:1035E00080E080FD13C0CE010E940F06882371F099
:1035F000688179818A810E94D4208C010E942F20C9
:103600000E94201FB801CE010E948A18DF91CF913D
:103610001F910F9108950E9428210E9438210E9435
:1036200056210E9437260E94912580E090E00E945A
:10363000AF1580E090E00C94C51580911001909139
:1036400011010E94E2220C940B1B0E9418210C9481
:103650001D1BE92FE295EF704E2F50E0FA013297D3
:10366000EE30F105B0F4E357FF4F0C943D2E803F50
:1036700091F018F4883E68F40EC0843F51F40BC0FA
:10368000883E48F0813F29F406C093FB882780F9E3
:10369000089580E0089581E008950E94C9200E9465
:1036A000291B0895CF93DF9300D000D01F92CDB790
:1036B000DEB70F900F900F900F900F90DF91CF918A
:1036C0000895CF93DF9300D000D000D0CDB7DEB700
:1036D00026960FB6F894DEBF0FBECDBFDF91CF9117
:1036E00008951F93CF93DF93C091A70116E08091B7
:1036F000A801C81799F0D0E01C9FF0011D9FF00DA4
:103700001124E755FE4F408151816281738184818C
:1037100095810E94611B2196C770E9CFDF91CF91FF
:103720001F9108954091D9015091DA016091DB0118
:103730007091DC018091DD019091DE010C94611BA0
:10374000CF938091DE0182958F7009F05FC08091E8
:10375000DB01882309F45AC08091A701B091A80128
:103760007091D901A091DA014091DC015091DD0105
:1037700091E07F3F09F090E0692FC6E08B1709F4D4
:1037800045C04115510521F0AF3F21F020E003C0B5
:1037900021E001C0262F90E020FD35C0C89FF00138
:1037A000C99FF00D1124E755FE4F21812A132BC02C
:1037B0002081271328C02281211125C02381348133
:1037C0002417350710F421503109241B350B283CF0
:1037D0003105C8F42091DE012F7020612093DE01B5
:1037E00026E0289FF001299FF00D1124E255FE4F9D
:1037F00080818F708061808389ED91E00E94DD1A65
:10380000CF910C94711B01968770B8CFCF9108951A
:10381000AF92BF92CF92DF92EF92FF920F931F93DE
:10382000CF93DF93CDB7DEB761970FB6F894DEBFC5
:103830000FBECDBF8C0185E0F801DE011D96019021
:103840000D928A95E1F7D8014C9111965C911197F0
:103850001296EC903091D9016091DA018091DC01EF
:103860009091DD01009731F06F3F31F421E03F3F4F
:1038700019F403C021E001C020E0B22FB170BB2ECB
:1038800020FD60C1F801C380D480A090DB01AA2094
:1038900009F4EEC02091DE01C816D90628F0D60141
:1038A000A81BB90BCD0104C0809590958C0D9D1D72
:1038B000FF24F394883C910580F0F12C207F09F0DF
:1038C0009CC07C2DD98AC88A6E2D89890E94521B82
:1038D00089ED91E00E94DD1A2DC1822F807F09F0D1
:1038E00054C0561314C0431312C0FE2CE1100FC075
:1038F0002F7020612093DE010E94921B89ED91E0E0
:103900000E94DD1A8091DE01F80185835CC1CD281B
:1039100031F05F3F31F481E04F3F19F403C081E0A3
:1039200001C080E080FD03C081E08E2502C080E000
:1039300090E0F82FF170FF2E80FF1CC08091A7014E
:103940002091A80136E0821709F41AC190E0389F4F
:10395000F001399FF00D1124E755FE4F6181561398
:1039600006C06081461303C06281E61203C001965F
:103970008770E9CFFE2CEE2009F425C18091DE018D
:1039800081608093DE01F12C1EC1561309C04313E0
:1039900007C0E11005C08091DE01F8018583A4C055
:1039A0004D875E878D859E850E944D1B882379F10A
:1039B000EE2069F12091DE01822F82958F7090E0D8
:1039C000029774F08091D9019091DA0198878F83E2
:1039D0001986DB86CA862C87CE0107960E94DD1ADF
:1039E00086E0F801A9EDB1E001900D928A95E1F72A
:1039F0000E94A01B0E94921B0DC0561771F04D87AC
:103A00005E878D859E850E944D1B81111AC0C8015D
:103A10000E94DD1AFF24F394D6C04313F0CFE110C7
:103A2000EECF8091DE01F8018583C8010E94DD1A86
:103A300086E0E9EDF1E0DF011D928A95E9F7FA2CC5
:103A4000C2C0EE2021F32091DE01822F82958F707B
:103A500090E002972CF28091D9019091DA019A833B
:103A600089831B82DD82CC822E83CE010196B6CF64
:103A7000C816D90628F0F601E81BF90BCF0104C0DF
:103A8000809590958C0D9D1D883C910548F0F12CFA
:103A90007C2DD98AC88A6E2D89890E94521B4AC002
:103AA000FE2CEE2009F4B3CF561333C0431331C0BC
:103AB0002091DE0120FD24C0822F82958F70482F37
:103AC00050E041155105E1F0D80115962C9315975A
:103AD0004F30510549F08F5F982F9295907F822F3C
:103AE0008F70892B15968C93C8010E94DD1A86E091
:103AF000F801A9EDB1E001900D928A95E1F73DC082
:103B000086E0F801A9EDB1E001900D928A95E1F708
:103B10005AC04D875E878D859E850E944D1B811101
:103B20005FCF8091DE0181608093DE01C8010E9439
:103B3000DD1A49C0E9EDF1E086E0DF011D928A95CA
:103B4000E9F71BC0EE2009F462CF4D875E878D85B3
:103B50009E850E944D1BF82E882309F458CF86E0DD
:103B6000F801A9EDB1E001900D928A95E1F789ED98
:103B700091E00E94DD160E94A01B0E94921B23C0B0
:103B80004D875E878D859E850E94C920292F2295AD
:103B90002F70223028F49F7039F0811105C00BC0BE
:103BA000243028F49F7049F4805E883020F0C801EA
:103BB0000E94DD1ABF2CFB2C06C0D80115969C91E3
:103BC000907F91F7F8CF8F2D61960FB6F894DEBFF6
:103BD0000FBECDBFDF91CF911F910F91FF90EF905E
:103BE000DF90CF90BF90AF9008951F93CF93DF9356
:103BF000CDB7DEB72C970FB6F894DEBF0FBECDBFA2
:103C00004F83588769877A878B879C87CE01079671
:103C10000E94081C8823D1F09F8188852A853B85D6
:103C2000232B31F08F3F31F481E09F3F19F403C023
:103C300081E001C080E080FD47C04F8158856985E3
:103C40007A858B859C850E94611B3EC086E0FE01C3
:103C50003796DE01119601900D928A95E1F7FF816A
:103C6000E8856A857B856115710531F0EF3F31F498
:103C700081E0FF3F19F403C081E001C080E080FDD6
:103C800023C02091A80130E0C901019687709927CF
:103C90004091A70150E084179507F1F1F983EA8379
:103CA0007D836C8396E0929FD001939FB00D112489
:103CB000A755BE4FFE01319601900D929A95E1F7FE
:103CC0008093A8010E94711B16E08091A70190913A
:103CD000A801891771F1189FC001112487559E4FC3
:103CE0000E94081C882329F1E091A7011E9FF00182
:103CF0001124E755FE4F4081518162817381848197
:103D000095810E94611B8091A70190E001968770C8
:103D100099278093A701D9CF0E94251B1092A80153
:103D20001092A701E9EDF1E086E0DF011D928A958E
:103D3000E9F72C960FB6F894DEBF0FBECDBFDF912A
:103D4000CF911F910895EF92FF920F931F93CF93FE
:103D5000DF938C01892B09F46CC0F12CEE24E394E1
:103D6000E8012196F8018491843740F4843008F00A
:103D700051C0813081F0823019F15BC0853709F480
:103D800044C0A8F19CE7980F903708F052C08F7795
:103D90000E94011841C00E5F1F4FFE01849190E206
:103DA000980F983050F48770FE2D01C0FF0F8A9550
:103DB000EAF78F2F0E942B2114C00E94E3162DC01A
:103DC0000E5F1F4FFE01849190E2980F983060F4CF
:103DD0008770FE2D01C0FF0F8A95EAF78F2F0E9492
:103DE00031210E94562119C00E94011816C00E5F91
:103DF0001F4FFE01C491CC2381F08FE99FE0019712
:103E0000F1F700C00000C150F6CF0E5F1F4FFE015A
:103E1000F49003C00E94E3168E018F2D882309F4CD
:103E20009FCFEFE9FFE03197F1F700C0000081502C
:103E3000F5CFDF91CF911F910F91FF90EF900895F3
:103E4000089508950C94211F0C94221F0E94241F92
:103E500060931502709316028093170290931802D4
:103E60000C940B1B0C94261F0F931F9300911502AB
:103E7000109116022091170230911802602B712BBD
:103E8000822B932B1F910F910C94261F0F931F933E
:103E9000009115021091160220911702309118021C
:103EA00060237123822393231F910F910C94261F6B
:103EB0000F931F9300911502109116022091170283
:103EC0003091180260277127822793271F910F9145
:103ED0000C94261F0C94211F0E946A1F60931102EC
:103EE0007093120280931302909314020C940B1B94
:103EF00060E070E0CB010C946C1F0F931F9341E0C6
:103F000050E060E070E08A019B0104C0000F111FC7
:103F1000221F331F8A95D2F7C901B8011F910F9153
:103F20000C946C1F0F931F9341E050E060E070E031
:103F300004C0440F551F661F771F8A95D2F78091E2
:103F4000110290911202A0911302B09114028A0101
:103F50009B01082B192B2A2B3B2BC901B8011F9160
:103F60000F910C946C1F0F931F9341E050E060E0A1
:103F700070E004C0440F551F661F771F8A95D2F763
:103F80004095509560957095809111029091120224
:103F9000A0911302B09114028A019B0108231923F6
:103FA0002A233B23C901B8011F910F910C946C1F68
:103FB0000F931F9341E050E060E070E004C0440FB5
:103FC000551F661F771F8A95D2F780911102909135
:103FD0001202A0911302B09114028A019B010827DA
:103FE00019272A273B27C901B8011F910F910C946B
:103FF0006C1F0F931F9300911102109112022091D8
:10400000130230911402602B712B822B932B1F9182
:104010000F910C946C1F0F931F930091110210913C
:104020001202209113023091140260237123822323
:1040300093231F910F910C946C1F0F931F9300916A
:104040001102109112022091130230911402602784
:104050007127822793271F910F910C946C1F08954D
:104060002FE0929F800D1124E82FE695E695E695C6
:10407000877051E001C0550F8A95EAF785E0E89F07
:10408000F0011124E152FE4F20E030E070E0408169
:10409000CB01022E02C0969587950A94E2F78170B3
:1040A000819584278523842781932F5F3F4F253077
:1040B000310569F708952FE0929F800D1124682F34
:1040C000669566956695982F977085E0689FB00114
:1040D000112440E050E080E0FB01E40FF51FE152C5
:1040E000FE4F208130E0092E02C0369527950A94B4
:1040F000E2F721703327042E01C0220F0A94EAF759
:10410000822B4F5F5F4F4530510531F70895BF92C5
:10411000CF92DF92EF92FF920F931F93CF93DF9393
:104120008C01C0901102D0901202E0901302F09026
:1041300014028091150290911602A0911702B0917D
:104140001802C82AD92AEA2AFB2ACFE1D0E0D701EF
:10415000C6010C2E04C0B695A795979587950A942D
:10416000D2F780FD04C0219790F7B12C07C0BC2E78
:10417000B8018C2F0E948C060197A9F38B2DDF913B
:10418000CF911F910F91FF90EF90DF90CF90BF9054
:104190000895CF93DF93EC010E948720BE010E9417
:1041A0008C06DF91CF9108951F93CF93DF93EB019E
:1041B0009091A601992321F0CB010E94C92013C040
:1041C000882349F0CB010E948720182F682FCE0149
:1041D0000E94302004C0CB010E945B20182FBE013A
:1041E000812F0E948C06DF91CF911F9108958091BD
:1041F0001902859585958595089580911902877096
:10420000089590911902977081E009F480E0089573
:1042100080913D02089590913D02892B80933D024B
:104220000895809590913D02892380933D020895E1
:1042300010923D02089590913C02892B80933C029C
:104240000895809590913C02892380933C020895C3
:1042500010923C02089590913B02892B80933B027F
:104260000895809590913B02892380933B020895A5
:1042700010923B02089580911A02089508950C94BB
:104280003E210C943F2190911A02981721F08093BF
:104290001A020C944121089580911A02882329F072
:1042A00010921A0280E00C9441210895E0911001CF
:1042B000F091110180913D028083E0911001F09115
:1042C0001101908180913C02892B8083E091100143
:1042D000F0911101908180913B02892B8083809124
:1042E0001A02882381F0E0911001F0911101908170
:1042F000892B808380911001909111010E94662288
:1043000081110E944C2180911001909111010C9417
:1043100087150C943E2198E0899F90011124262B4B
:10432000209319020E94921F80911902859585950C
:1043300085950C9489211092190280E00C948921B2
:10434000209119028095822380931902982F9770EB
:1043500079F430E0482F082E000C550B2417350750
:1043600039F08595859585950E94B31F0C949B2106
:1043700008956FEF7FEF80E090E00C94892E80E04D
:1043800090E00E94652E21E08C3E9E4F09F020E0D7
:10439000822F089582E090E00C94572E83E090E005
:1043A0000C94572ECF9384E090E00E94572EC82F94
:1043B00081E290E00E94572E2C2F30E0A901582B6B
:1043C000CA01CF910895CF93C92F682F84E090E060
:1043D0000E946B2E6C2F81E290E0CF910C946B2E9B
:1043E000AB01BC018FE090E00C947D2EAB01BC01D1
:1043F00083E190E00C947D2E60E070E0CB010C94A2
:10440000F62160E070E0CB010E94F0210C94FC21C9
:104410006CEE7EEF80E090E00E94892E60E082E00A
:1044200090E00E946B2E60E083E090E00E946B2E93
:104430001092150210921602109217021092180292
:1044400060E084E090E00E946B2E60E081E290E00A
:104450000E946B2E60E085E090E00E946B2E60E091
:1044600086E090E00E946B2E6FEF87E090E00E9464
:104470006B2E40E050E0BA0188E090E00E947D2E73
:1044800060E08DE090E00E946B2E40E050E0BA01C9
:1044900088E190E00E947D2E60E087E190E00E943C
:1044A0006B2E40E050E0BA018CE190E00E947D2E3E
:1044B00060E080E290E00E946B2E0C9401220C944C
:1044C0000822682F8EE090E00C946B2EFC0132964F
:1044D00080912201882331F08091900287FF02C0F1
:1044E0009EE101C096E080E0915028F021912223C6
:1044F000D9F38F5FF9CF08959C01FC0132969FEFAD
:1045000080E04191461789F09F3F19F4411101C0A5
:10451000982F8F5F8630A9F79F3F39F0F901E90F97
:10452000F11D97FDFA956283089508959C012A5F15
:104530003F4FFC014281461301C01282019682174F
:104540009307B9F70895262F2695269526952E319F
:1045500068F4FC01E20FF11D677021E030E001C05A
:10456000220F6A95EAF78281282B22830895262F4D
:104570002695269526952E3170F4FC01E20FF11D4B
:10458000677021E030E001C0220F6A95EAF72095BC
:10459000828128232283089520912201222329F059
:1045A0002091900227FD0C94A3220C947C22209150
:1045B0002201222329F02091900227FD0C94B7229A
:1045C0000C94962220912201FC013296222331F094
:1045D0008091900287FF02C08EE101C086E0DF017A
:1045E0001D928A95E9F7089508950C94F4220C948D
:1045F000F422CF930E94F7220E9480090E94F522A4
:10460000C0E08C2F0E942409892B29F4CF5FC5308C
:10461000C1F780E001C081E0CF9108950C94F422AD
:104620000C940E230E94102380919602843049F14D
:1046300010923F0220E488E190E00FB6F894A8952C
:10464000809360000FBE2093600080E00E94F6051A
:104650000E94102383B7817F846083BF83B781600A
:1046600083BF7894889583B78E7F83BF0FB6F89405
:10467000A89580916000886180936000109260002E
:104680000FBE08950C94F4220E94251B0E947B15F6
:104690000E94F6050C9442231F920F920FB60F92C0
:1046A00011248F939F93AF93BF9380913F02811109
:1046B00013C080918C0290918D02A0918E02B091D6
:1046C0008F024196A11DB11D80938C0290938D02A3
:1046D000A0938E02B0938F02BF91AF919F918F9163
:1046E0000F900FBE0F901F90189582E084BD93E04D
:1046F00095BD9AEF97BD80936E0008952FB7F894FB
:1047000080918C0290918D02A0918E02B0918F02C7
:104710002FBF08952FB7F89460918C0270918D028D
:1047200080918E0290918F022FBF0895CF92DF92D9
:10473000EF92FF920F931F932FB7F89440918C0242
:1047400050918D0260918E0270918F022FBF6A018D
:104750007B01EE24FF248C0120E030E0C016D1065E
:10476000E206F30610F4415051099A01281B390B57
:10477000C9011F910F91FF90EF90DF90CF900895A6
:1047800078941F920F920FB60F9211248F939F93DC
:10479000AF93BF9380918C0290918D02A0918E0275
:1047A000B0918F020196A11DB11D80938C02909350
:1047B0008D02A0938E02B0938F02BF91AF919F9113
:1047C0008F910F900FBE0F901F90189581E08093EE
:1047D000E00080E28093D8001092C9008FE19EE44F
:1047E0000197F1F700C0000087E090EBDC018093B7
:1047F0009F029093A002A093A102B093A2029CE01A
:1048000088E10FB6F894A895809360000FBE90934E
:104810006000FFCF0E94BF21811102C00E945F2271
:104820000E94CA2180933E020E94D221909391025D
:10483000809390020E94CE21682F70E080E090E08B
:104840000C94321F8091430280FF0BC060911501D0
:1048500085E0689FB00111247595679575956795FA
:104860002BC081FF09C06091150185E0689FB001F0
:1048700011247595679520C082FF07C060911501CE
:1048800085E0689FB001112417C0909142029923DE
:10489000D1F060911401961788F72091150185E0F9
:1048A000289F90011124929FA001939F500D1124E5
:1048B00070E0CA010E94292E6038710540F461152C
:1048C000710519F406C065E070E0862F08958FE742
:1048D000089581E008958091430280FF08C06091AF
:1048E000130170E0759567957595679521C081FFF7
:1048F00006C06091130170E07595679519C082FF3D
:1049000004C06091130170E010C09091420299239D
:1049100099F0609112019617A0F780911301899F79
:10492000C001112470E00E94292E6038710540F406
:104930006115710519F406C061E070E0862F0895D5
:104940008FE7089581E00895803F21F40E9422249A
:10495000819504C0813F29F40E942224809347025C
:104960000895823F21F40E942224819504C0833F50
:1049700029F40E942224809346020895893F19F465
:104980000E946B2405C08A3F31F40E946B248195FC
:104990008093480208958B3F21F40E946B248195F7
:1049A00004C08C3F29F40E946B248093490208952F
:1049B000843F21F480914502816017C0853F21F436
:1049C00080914502826011C0863F21F480914502AA
:1049D00084600BC0873F21F480914502886005C048
:1049E000883F31F4809145028061809345020895AB
:1049F0008D3F21F48091430281600BC08E3F21F4F2
:104A000080914302826005C08F3F29F48091430268
:104A10008460809343020895803F39F48091470277
:104A200087FF6CC01092470269C0813F29F48091D2
:104A300047021816BCF362C090914602823F29F4E7
:104A400097FF5CC01092460259C0833F19F41916B3
:104A5000CCF354C0893F41F48091480218160CF001
:104A60004DC0109248024AC08A3F29F48091480202
:104A700087FF44C0F6CF8B3F39F48091490287FF0E
:104A80003DC0109249023AC08C3F29F480914902FE
:104A90001816BCF333C0843F21F4809145028E7F09
:104AA00017C0853F21F4809145028D7F11C0863F5C
:104AB00021F4809145028B7F0BC0873F21F48091C8
:104AC0004502877F05C0883F31F4809145028F7E83
:104AD0008093450213C08D3F21F4809143028E7F65
:104AE0000BC08E3F21F4809143028D7F05C08F3F24
:104AF00029F4809143028B7F809343028091460288
:104B000081110EC08091470281110AC08091480234
:104B1000811106C080914902811102C010924202A7
:104B2000089584E492E00E94A1150E947E23909350
:104B300041028093400208951F93CF93DF938091A9
:104B40004002909141020E949623AC019091420252
:104B5000992321F02091160130E006C02091170121
:104B60008AE0289F900111244217530708F47BC064
:104B700080914602C0914702D091480210914902AB
:104B8000811107C0C1116BC0D11169C0111167C07B
:104B90006AC09F3F19F09F5F90934202181624F459
:104BA0000E942224809346028091460287FF05C01E
:104BB0000E9422248195809346021C1624F40E94B0
:104BC0002224809347028091470287FF05C00E94FC
:104BD0002224819580934702309146023323E1F0ED
:104BE000209147022223C1F045EB3403C001112478
:104BF000992319F09093460203C081E08093460206
:104C000035EB2303C0011124992319F09093470237
:104C100003C081E0809347021D1624F40E946B2498
:104C2000809348028091480287FF05C00E946B2450
:104C3000819580934802111624F40E946B2480937E
:104C400049028091490287FF05C00E946B2481952B
:104C500080934902DF91CF911F910C9491259F3F42
:104C600009F099CFAACFDF91CF911F910895E4E485
:104C7000F2E086E0DF011D928A95E9F71092420288
:104C800010924302089580916A0208950F931F9332
:104C9000CF93DF9300D01F92CDB7DEB78C010E9477
:104CA0000F29823011F0843019F584E089831B8349
:104CB0000A838093E9008FEF9091E800815095FD81
:104CC00006C095ED9A95F1F700008111F5CF80911E
:104CD000E80085FF0DC040E050E063E070E0CE01E9
:104CE00001960E942C298091E8008E778093E8003D
:104CF0000F900F900F90DF91CF911F910F9108951A
:104D0000CF93DF9300D01F92CDB7DEB720919602EC
:104D1000243029F533E03983805891099B838A83B5
:104D20002093E9008FEF9091E800815095FD06C037
:104D300095ED9A95F1F700008111F5CF8091E8008B
:104D400085FF0DC040E050E063E070E0CE010196C9
:104D50000E942C298091E8008E778093E8000F90C4
:104D60000F900F90DF91CF910895CF93DF93EC01D7
:104D70000E940F29823011F08430F9F484E080938E
:104D8000E9008FEF9091E800815095FD06C095ED08
:104D90009A95F1F700008111F5CF8091E80085FF29
:104DA0000CC040E050E066E070E0CE010E942C298B
:104DB0008091E8008E778093E800DF91CF9108958D
:104DC000CF93DF93EC010E940F29823011F08430E1
:104DD000D9F580912201882339F08091900287FFD4
:104DE00003C060E284E002C068E081E08093E900F3
:104DF0008FEF9091E800815095FD06C095ED9A9552
:104E0000F1F700008111F5CF8091E80085FF1CC00B
:104E100080912201811105C040E050E068E070E01F
:104E200003C070E040E050E0CE010E942C29809148
:104E3000E8008E778093E80080E2FE01AAE4B2E009
:104E400001900D928A95E1F7DF91CF910895CF936C
:104E5000603219F5209196022430F9F4C091E900EE
:104E6000CF703091EC00232F217030FD20E8C22B51
:104E700022E02093E9002091E80020FF0BC040E0F1
:104E800050E060E270E00E942C298091E8008E776B
:104E90008093E800CF70C093E900CF91089580918E
:104EA0009502811109C00E94082B0E94652B8091F8
:104EB000E20084608093E2000895109295020895C4
:104EC000089508950C94442342E061EC81E00E942F
:104ED000812A42E261EC84E00E94812A42E261EC94
:104EE00082E00E94812A42E260EC83E00C94812AF5
:104EF00080919802833009F462C030F4813071F0FF
:104F0000823009F49BC008958A3009F487C08B3041
:104F100009F46DC0893009F0A9C020C080919702C2
:104F2000813A09F0A3C08091E800877F8093E80070
:104F300080919B0290919C02892B21F460E28AE48B
:104F400092E003C060E080E090E070E00E94C2293F
:104F50008091E8008B778093E80008958091970214
:104F6000813209F083C080919B0290919C0200974E
:104F700019F0029709F07AC08091E800877F80934A
:104F8000E8008091E80082FD05C0809196028111C1
:104F9000F8CF6CC02091F3008091F20090E0922B4A
:104FA000029729F48091F1008B7F813021F4809168
:104FB000F10080936A028091E8008B7753C0809162
:104FC0009702813A09F052C080919B0290919C0215
:104FD000892B09F04BC08091E800877F8093E8001F
:104FE0008091E80080FFFCCF8091220136C0809143
:104FF00097028132D9F580919B0290919C02892B76
:10500000A9F58091E800877F8093E8000E94B62A86
:1050100080919902809322010C94251B8091970224
:10502000813221F58091E800877F8093E8000E941B
:10503000B62A80919A0280936B020895809197021C
:10504000813AA1F48091E800877F8093E800809105
:10505000E80080FFFCCF80916B028093F10080918B
:10506000E8008E778093E8000C94B62A08951F9389
:10507000CF93DF93CDB7DEB7A0970FB6F894DEBF1E
:105080000FBECDBF84B7877F84BF0FB6F894A895B5
:1050900080916000886180936000109260000FBE74
:1050A00090E080E80FB6F8948093610090936100DF
:1050B0000FBE0E94EB150E94082B0E94652B809169
:1050C000E20084608093E20078940E94FA2D0E94AE
:1050D000F31588E191E00E94761513E08091960225
:1050E000853069F40E941223809194028823B1F3E1
:1050F0000E94F922882391F30E941629EFCF0E9483
:10510000FF150E94630F80919602843039F7109347
:10511000E9008091E80082FFE1CF8091E80085FFFF
:105120000AC040E050E060E270E0CE0101960E94CB
:10513000772991E001C090E08091E8008B7780931F
:10514000E800992359F260E2CE0101960E946E11A7
:10515000C5CF0C94AB28292F332723303105C9F054
:1051600060F42130310581F02230310509F047C06B
:105170008BE590E021E837E046C02132310511F19E
:105180002232310561F13BC082E190E02CED37E045
:105190003AC099278130910561F040F08230910545
:1051A00059F0039761F5E9E3F7E008C0EDE7F7E0B0
:1051B00005C0E7E6F7E002C0EFE3F7E0849190E096
:1051C0009F0121C063307105D0F4660F771FFB018A
:1051D000EB59FE4F2081318189E090E014C06330AB
:1051E000710568F4FB01EE0FFF1FE15AFE4F2081AD
:1051F0003181FB01E45AFE4F808190E004C080E0E1
:1052000090E020E030E0FA0131832083089580911E
:105210009602843011F081E0089582E00895809133
:105220006C02811102C00C940729089580E189BDA8
:1052300082E189BD09B400FEFDCF8091D8008F7D49
:105240008093D8008091E00082608093E00080919C
:10525000E00081FDFCCF0895CF92DF92EF92FF92A4
:105260000F931F93CF93DF93EC018B017A010E9480
:10527000D52A811133C0E114F10439F0F70180819E
:105280009181081B190BC80FD91FC12CD12C0115F6
:10529000110519F18091E80085FD16C08091E800A4
:1052A0008E778093E800E114F10449F0F7018081E2
:1052B0009181C80ED91ED182C08285E00FC00E94A4
:1052C000D52A882321F30AC089918093F1000150E7
:1052D0001109FFEFCF1ADF0ADACF80E0DF91CF911B
:1052E0001F910F91FF90EF90DF90CF900895CF9294
:1052F000DF92EF92FF920F931F93CF93DF93EC0116
:105300008B017A010E94D52A811133C0E114F10486
:1053100039F0F70180819181081B190BC80FD91F43
:10532000C12CD12C0115110519F18091E80085FDE2
:1053300016C08091E8008B778093E800E114F104B7
:1053400049F0F70180819181C80ED91ED182C082B7
:1053500085E00FC00E94D52A882321F30AC08091DE
:10536000F100899301501109FFEFCF1ADF0ADACF5C
:1053700080E0DF91CF911F910F91FF90EF90DF9030
:10538000CF90089520919D0230919E0226173707F5
:1053900048F06115710539F42091E8002E772093CB
:1053A000E80001C0B901FC0120E06115710579F147
:1053B000809196028823F1F18530F1F18091E80027
:1053C00083FD3CC08091E80082FD2EC08091E80002
:1053D00080FFEBCF2091F3008091F20090E0922BC0
:1053E0006115710551F08830910538F421912093B1
:1053F000F100615071090196F3CF21E0089709F09F
:1054000020E08091E8008E778093E800CECF2111D4
:10541000CFCF0AC080919602882361F0853061F079
:105420008091E80083FD0AC08091E80082FFF2CFFE
:1054300080E0089582E0089583E0089581E0089572
:1054400020919D0230919E022617370748F0611582
:10545000710539F42091E8002E772093E80001C00F
:10546000B901FC0120E06115710591F1809196026E
:10547000882309F440C0853009F43FC08091E800DA
:1054800083FD3DC08091E80082FD2FC08091E8003F
:1054900080FFE9CF2091F3008091F20090E0922B01
:1054A0006115710559F08830910540F424912093DD
:1054B000F1003196615071090196F2CF21E0089711
:1054C00009F020E08091E8008E778093E800CBCF50
:1054D0002111CCCF0AC080919602882361F08530DB
:1054E00061F08091E80083FD0AC08091E80082FFAE
:1054F000F2CF80E0089582E0089583E0089581E08E
:105500000895982F973068F59093E900981739F02F
:105510007091EC002091ED005091F00003C0242F19
:10552000762F50E021FD02C09F5FECCF3091EB0061
:105530003E7F3093EB003091ED003D7F3093ED00E6
:105540003091EB0031603093EB007093EC002093CE
:10555000ED005093F0002091EE0027FDE5CF80E0B4
:1055600008958F708093E90081E0089580919702FB
:1055700087FF11C08091E80082FD05C080919602EE
:105580008111F8CF11C08091E8008B770BC080911A
:105590009602882349F08091E80080FFF8CF80913F
:1055A000E8008E778093E80008952091E400309120
:1055B000E50095E64091EC00842F817040FF23C008
:1055C0008091E80080FD1DC080919602882399F0AB
:1055D000853099F08091EB0085FD11C04091E40089
:1055E0005091E5002417350729F3915011F09A01E5
:1055F000E1CF84E0089582E0089583E0089581E09A
:10560000089580E008954091E80042FFDDCF0895BD
:105610000E94762B0E947E2BE0EEF0E0808181607C
:105620008083E8EDF0E080818F77808319BCA7ED5F
:10563000B0E08C918E7F8C9380818F7E80831092DE
:10564000950208950F931F93CF93DF930E94762BBB
:105650000E947E2BC8EDD0E088818F778883888177
:105660008068888388818F7D888319BC1092960218
:1056700010929202109294021092930200EE10E0A7
:10568000F80180818B7F808388818160888342E0FC
:1056900060E080E00E94812AE1EEF0E080818E7F70
:1056A0008083E2EEF0E08081816080838081886089
:1056B0008083F80180818E7F8083888180618883E8
:1056C000DF91CF911F910F910895E8EDF0E0808177
:1056D0008F7E8083E7EDF0E080818160808384E0CD
:1056E00082BF81E0809395020C94222BE8EDF0E0DC
:1056F00080818E7F80831092E20008951092DA00FC
:105700001092E10008951F920F920FB60F9211248C
:105710002F933F934F935F936F937F938F939F93B9
:10572000AF93BF93EF93FF938091E10082FF0BC093
:105730008091E20082FF07C08091E1008B7F80931F
:10574000E1000E94F92D8091DA0080FF1FC0809156
:10575000D80080FF1BC08091DA008E7F8093DA0032
:105760008091D90080FF0DC080E189BD82E189BDB3
:1057700009B400FEFDCF81E0809396020E944F277E
:1057800005C019BC109296020E945D278091E1002D
:1057900080FF19C08091E20080FF15C08091E20077
:1057A0008E7F8093E2008091E20080618093E2002E
:1057B0008091D80080628093D80019BC85E08093E6
:1057C00096020E9461278091E10084FF30C08091A1
:1057D000E20084FF2CC080E189BD82E189BD09B46B
:1057E00000FEFDCF8091D8008F7D8093D8008091FE
:1057F000E1008F7E8093E1008091E2008F7E8093B4
:10580000E2008091E20081608093E2008091920248
:10581000882311F084E007C08091E30087FD02C077
:1058200081E001C083E0809396020E94622780910C
:10583000E10083FF29C08091E20083FF25C08091B1
:10584000E100877F8093E10082E0809396021092CE
:1058500092028091E1008E7F8093E1008091E200CE
:105860008E7F8093E2008091E20080618093E2006D
:1058700042E060E080E00E94812A8091F000886030
:105880008093F0000E946027FF91EF91BF91AF914C
:105890009F918F917F916F915F914F913F912F9148
:1058A0000F900FBE0F901F9018951F920F920FB67A
:1058B0000F9211242F933F934F935F936F937F9396
:1058C0008F939F93AF93BF93CF93DF93EF93FF9308
:1058D000C091E900CF708091EC00D82FD17080FD8D
:1058E000D0E81092E9008091F000877F8093F0006B
:1058F00078940E94992C1092E9008091F0008860C1
:105900008093F000CD2BCF70C093E900FF91EF9111
:10591000DF91CF91BF91AF919F918F917F916F91C7
:105920005F914F913F912F910F900FBE0F901F905D
:1059300018951F93CF93DF93CDB7DEB7AA970FB615
:10594000F894DEBF0FBECDBFE7E9F2E08091F10031
:10595000819322E0EF39F207C9F70E9478278091FE
:10596000E80083FF2EC18091970290919802492F01
:1059700050E04A30510508F024C1FA01E556FF4FC6
:105980000C943D2E803821F0823809F01AC108C0ED
:105990008091930290919402992389F082600FC0C4
:1059A00080919B028F70873008F00BC18093E900D3
:1059B0008091EB0085FB882780F91092E900909197
:1059C000E800977F9093E8008093F1001092F10037
:1059D000D1C0282F2D7F09F0F4C0882319F0823020
:1059E00061F0EFC080919902813009F0EAC09330F4
:1059F00009F080E0809394022EC080919902811179
:105A00002AC080919B028F702FEF280F263008F05C
:105A1000D8C08093E9002091EB0020FF1CC0933098
:105A200021F48091EB00806214C09091EB009061B2
:105A30009093EB0021E030E0A90102C0440F551F14
:105A40008A95E2F74093EA001092EA008091EB0019
:105A500088608093EB001092E9008091E800877FD6
:105A60008093E8000E94B62AACC08111AAC01091B0
:105A700099021F778091E3008078812B8093E30067
:105A80008091E800877F8093E8000E94B62A809189
:105A9000E80080FFFCCF8091E30080688093E30002
:105AA000111102C082E001C083E08093960289C098
:105AB0008058823008F085C08091990290919A02B6
:105AC0008C3D53E0950779F583E08A838AE28983E8
:105AD0004FB7F894DE01139620E03EE051E2E32F49
